{
  "_format": "hh-sol-artifact-1",
  "contractName": "Bank",
  "sourceName": "contracts/Marbles.sol",
  "abi": [
    {
      "inputs": [],
      "stateMutability": "nonpayable",
      "type": "constructor"
    },
    {
      "inputs": [],
      "name": "getBankAddress",
      "outputs": [
        {
          "internalType": "address payable",
          "name": "",
          "type": "address"
        }
      ],
      "stateMutability": "nonpayable",
      "type": "function"
    },
    {
      "inputs": [],
      "name": "getBankBalance",
      "outputs": [
        {
          "internalType": "uint256",
          "name": "",
          "type": "uint256"
        }
      ],
      "stateMutability": "nonpayable",
      "type": "function"
    },
    {
      "inputs": [
        {
          "internalType": "address payable",
          "name": "user",
          "type": "address"
        },
        {
          "internalType": "uint256",
          "name": "amount",
          "type": "uint256"
        }
      ],
      "name": "payUser",
      "outputs": [],
      "stateMutability": "nonpayable",
      "type": "function"
    }
  ],
  "bytecode": "0x608060405234801561001057600080fd5b506000600181905550610341806100286000396000f3fe608060405234801561001057600080fd5b50600436106100415760003560e01c806366f780e9146100465780637b83b50b14610064578063ecd831e814610082575b600080fd5b61004e61009e565b60405161005b91906101a2565b60405180910390f35b61006c6100c7565b60405161007991906101d6565b60405180910390f35b61009c6004803603810190610097919061024e565b6100d1565b005b60008060009054906101000a900473ffffffffffffffffffffffffffffffffffffffff16905090565b6000600154905090565b806001541015610116576040517f08c379a000000000000000000000000000000000000000000000000000000000815260040161010d906102eb565b60405180910390fd5b8173ffffffffffffffffffffffffffffffffffffffff166108fc829081150290604051600060405180830381858888f1935050505015801561015c573d6000803e3d6000fd5b505050565b600073ffffffffffffffffffffffffffffffffffffffff82169050919050565b600061018c82610161565b9050919050565b61019c81610181565b82525050565b60006020820190506101b76000830184610193565b92915050565b6000819050919050565b6101d0816101bd565b82525050565b60006020820190506101eb60008301846101c7565b92915050565b600080fd5b6101ff81610181565b811461020a57600080fd5b50565b60008135905061021c816101f6565b92915050565b61022b816101bd565b811461023657600080fd5b50565b60008135905061024881610222565b92915050565b60008060408385031215610265576102646101f1565b5b60006102738582860161020d565b925050602061028485828601610239565b9150509250929050565b600082825260208201905092915050565b7f42616e6b2069732062726f6b65206c6f6c000000000000000000000000000000600082015250565b60006102d560118361028e565b91506102e08261029f565b602082019050919050565b60006020820190508181036000830152610304816102c8565b905091905056fea26469706673582212203c57586f52259a82a56efc051f205793eb61f6a06d4da88d56667e2b630d56c664736f6c63430008130033",
  "linkReferences": {},
  "deployedLinkReferences": {}
}