{
  "_format": "hh-sol-artifact-1",
  "contractName": "Marbles",
  "sourceName": "contracts/Marbles.sol",
  "abi": [
    {
      "inputs": [],
      "stateMutability": "nonpayable",
      "type": "constructor"
    },
    {
      "inputs": [],
      "name": "addMarble",
      "outputs": [],
      "stateMutability": "nonpayable",
      "type": "function"
    },
    {
      "inputs": [
        {
          "internalType": "address",
          "name": "account",
          "type": "address"
        }
      ],
      "name": "balanceOf",
      "outputs": [
        {
          "internalType": "uint256",
          "name": "",
          "type": "uint256"
        }
      ],
      "stateMutability": "view",
      "type": "function"
    },
    {
      "inputs": [],
      "name": "checkGoals",
      "outputs": [],
      "stateMutability": "nonpayable",
      "type": "function"
    },
    {
      "inputs": [
        {
          "internalType": "uint256",
          "name": "hashInt",
          "type": "uint256"
        }
      ],
      "name": "completeGoal",
      "outputs": [],
      "stateMutability": "nonpayable",
      "type": "function"
    },
    {
      "inputs": [
        {
          "internalType": "string",
          "name": "date",
          "type": "string"
        }
      ],
      "name": "convertDateToTimestamp",
      "outputs": [
        {
          "internalType": "uint256",
          "name": "",
          "type": "uint256"
        }
      ],
      "stateMutability": "pure",
      "type": "function"
    },
    {
      "inputs": [
        {
          "internalType": "uint256",
          "name": "h",
          "type": "uint256"
        },
        {
          "internalType": "string",
          "name": "g",
          "type": "string"
        },
        {
          "internalType": "string",
          "name": "desc",
          "type": "string"
        },
        {
          "internalType": "string",
          "name": "d",
          "type": "string"
        },
        {
          "internalType": "uint256",
          "name": "a",
          "type": "uint256"
        }
      ],
      "name": "createGoal",
      "outputs": [],
      "stateMutability": "nonpayable",
      "type": "function"
    },
    {
      "inputs": [],
      "name": "getGoals",
      "outputs": [
        {
          "components": [
            {
              "internalType": "uint256",
              "name": "hashInt",
              "type": "uint256"
            },
            {
              "internalType": "string",
              "name": "name",
              "type": "string"
            },
            {
              "internalType": "string",
              "name": "date",
              "type": "string"
            },
            {
              "internalType": "string",
              "name": "description",
              "type": "string"
            },
            {
              "internalType": "uint256",
              "name": "accountability",
              "type": "uint256"
            },
            {
              "internalType": "int256",
              "name": "complete",
              "type": "int256"
            }
          ],
          "internalType": "struct Marbles.Goal[]",
          "name": "",
          "type": "tuple[]"
        }
      ],
      "stateMutability": "nonpayable",
      "type": "function"
    },
    {
      "inputs": [],
      "name": "marbleJar",
      "outputs": [
        {
          "internalType": "address",
          "name": "",
          "type": "address"
        }
      ],
      "stateMutability": "view",
      "type": "function"
    },
    {
      "inputs": [],
      "name": "name",
      "outputs": [
        {
          "internalType": "string",
          "name": "",
          "type": "string"
        }
      ],
      "stateMutability": "view",
      "type": "function"
    },
    {
      "inputs": [
        {
          "internalType": "uint256",
          "name": "amount",
          "type": "uint256"
        }
      ],
      "name": "sentEthToBank",
      "outputs": [],
      "stateMutability": "nonpayable",
      "type": "function"
    },
    {
      "inputs": [],
      "name": "symbol",
      "outputs": [
        {
          "internalType": "string",
          "name": "",
          "type": "string"
        }
      ],
      "stateMutability": "view",
      "type": "function"
    },
    {
      "inputs": [],
      "name": "totalMarbles",
      "outputs": [
        {
          "internalType": "uint256",
          "name": "",
          "type": "uint256"
        }
      ],
      "stateMutability": "view",
      "type": "function"
    }
  ],
  "bytecode": "0x60806040526040518060400160405280600781526020017f4d6172626c657300000000000000000000000000000000000000000000000000815250600190816200004a91906200036c565b506040518060400160405280600681526020017f4d4152424c450000000000000000000000000000000000000000000000000000815250600290816200009191906200036c565b50620186a0600355348015620000a657600080fd5b506000600560003373ffffffffffffffffffffffffffffffffffffffff1673ffffffffffffffffffffffffffffffffffffffff1681526020019081526020016000208190555062000453565b600081519050919050565b7f4e487b7100000000000000000000000000000000000000000000000000000000600052604160045260246000fd5b7f4e487b7100000000000000000000000000000000000000000000000000000000600052602260045260246000fd5b600060028204905060018216806200017457607f821691505b6020821081036200018a57620001896200012c565b5b50919050565b60008190508160005260206000209050919050565b60006020601f8301049050919050565b600082821b905092915050565b600060088302620001f47fffffffffffffffffffffffffffffffffffffffffffffffffffffffffffffffff82620001b5565b620002008683620001b5565b95508019841693508086168417925050509392505050565b6000819050919050565b6000819050919050565b60006200024d62000247620002418462000218565b62000222565b62000218565b9050919050565b6000819050919050565b62000269836200022c565b62000281620002788262000254565b848454620001c2565b825550505050565b600090565b6200029862000289565b620002a58184846200025e565b505050565b5b81811015620002cd57620002c16000826200028e565b600181019050620002ab565b5050565b601f8211156200031c57620002e68162000190565b620002f184620001a5565b8101602085101562000301578190505b620003196200031085620001a5565b830182620002aa565b50505b505050565b600082821c905092915050565b6000620003416000198460080262000321565b1980831691505092915050565b60006200035c83836200032e565b9150826002028217905092915050565b6200037782620000f2565b67ffffffffffffffff811115620003935762000392620000fd565b5b6200039f82546200015b565b620003ac828285620002d1565b600060209050601f831160018114620003e45760008415620003cf578287015190505b620003db85826200034e565b8655506200044b565b601f198416620003f48662000190565b60005b828110156200041e57848901518255600182019150602085019450602081019050620003f7565b868310156200043e57848901516200043a601f8916826200032e565b8355505b6001600288020188555050505b505050505050565b611d4e80620004636000396000f3fe608060405234801561001057600080fd5b50600436106100b35760003560e01c806370a082311161007157806370a082311461017a5780638e03adf3146101aa57806395d89b41146101c65780639e656d69146101e4578063cb94ba6a14610202578063e2d17ab11461020c576100b3565b806275059e146100b857806306fdde03146100e857806310e6002c146101065780632d882e7114610124578063574678de1461014057806357a38f281461015e575b600080fd5b6100d260048036038101906100cd91906112f3565b610216565b6040516100df9190611355565b60405180910390f35b6100f06105d4565b6040516100fd91906113ef565b60405180910390f35b61010e610662565b60405161011b9190611452565b60405180910390f35b61013e60048036038101906101399190611499565b610688565b005b61014861082e565b6040516101559190611355565b60405180910390f35b610178600480360381019061017391906114c6565b610834565b005b610194600480360381019061018f91906115c1565b610939565b6040516101a19190611355565b60405180910390f35b6101c460048036038101906101bf9190611499565b610982565b005b6101ce610bb4565b6040516101db91906113ef565b60405180910390f35b6101ec610c42565b6040516101f991906117b9565b60405180910390f35b61020a610eb2565b005b610214610f09565b005b6000808290506000600267ffffffffffffffff811115610239576102386111c8565b5b6040519080825280601f01601f19166020018201604052801561026b5781602001600182028036833780820191505090505b509050600081905082600081518110610287576102866117db565b5b602001015160f81c60f81b816000815181106102a6576102a56117db565b5b60200101907effffffffffffffffffffffffffffffffffffffffffffffffffffffffffffff1916908160001a905350826001815181106102e9576102e86117db565b5b602001015160f81c60f81b81600181518110610308576103076117db565b5b60200101907effffffffffffffffffffffffffffffffffffffffffffffffffffffffffffff1916908160001a9053506000600267ffffffffffffffff811115610354576103536111c8565b5b6040519080825280601f01601f1916602001820160405280156103865781602001600182028036833780820191505090505b5090506000819050846003815181106103a2576103a16117db565b5b602001015160f81c60f81b816000815181106103c1576103c06117db565b5b60200101907effffffffffffffffffffffffffffffffffffffffffffffffffffffffffffff1916908160001a90535084600481518110610404576104036117db565b5b602001015160f81c60f81b81600181518110610423576104226117db565b5b60200101907effffffffffffffffffffffffffffffffffffffffffffffffffffffffffffff1916908160001a9053506000600467ffffffffffffffff81111561046f5761046e6111c8565b5b6040519080825280601f01601f1916602001820160405280156104a15781602001600182028036833780820191505090505b509050600081905060005b600481101561053457876006826104c39190611839565b815181106104d4576104d36117db565b5b602001015160f81c60f81b8282815181106104f2576104f16117db565b5b60200101907effffffffffffffffffffffffffffffffffffffffffffffffffffffffffffff1916908160001a905350808061052c9061186d565b9150506104ac565b506000610540876110ff565b9050600061054d866110ff565b9050600061055a856110ff565b90506201518060018361056d91906118b5565b61057791906118e9565b6228de8060018561058891906118b5565b61059291906118e9565b6301e133806107b2846105a591906118b5565b6105af91906118e9565b6105b99190611839565b6105c39190611839565b9a5050505050505050505050919050565b600180546105e19061195a565b80601f016020809104026020016040519081016040528092919081815260200182805461060d9061195a565b801561065a5780601f1061062f5761010080835404028352916020019161065a565b820191906000526020600020905b81548152906001019060200180831161063d57829003601f168201915b505050505081565b600460009054906101000a900473ffffffffffffffffffffffffffffffffffffffff1681565b6000600560003373ffffffffffffffffffffffffffffffffffffffff1673ffffffffffffffffffffffffffffffffffffffff168152602001908152602001600020541080610715575080600560003373ffffffffffffffffffffffffffffffffffffffff1673ffffffffffffffffffffffffffffffffffffffff1681526020019081526020016000205410155b610754576040517f08c379a000000000000000000000000000000000000000000000000000000000815260040161074b906119d7565b60405180910390fd5b60008054906101000a900473ffffffffffffffffffffffffffffffffffffffff1673ffffffffffffffffffffffffffffffffffffffff166366f780e96040518163ffffffff1660e01b81526004016020604051808303816000875af11580156107c1573d6000803e3d6000fd5b505050506040513d601f19601f820116820180604052508101906107e59190611a35565b73ffffffffffffffffffffffffffffffffffffffff166108fc829081150290604051600060405180830381858888f1935050505015801561082a573d6000803e3d6000fd5b5050565b60035481565b60006040518060c0016040528087815260200186815260200184815260200185815260200183815260200160008152509050600660003373ffffffffffffffffffffffffffffffffffffffff1673ffffffffffffffffffffffffffffffffffffffff1681526020019081526020016000208190806001815401808255809150506001900390600052602060002090600602016000909190919091506000820151816000015560208201518160010190816108ee9190611c0e565b5060408201518160020190816109049190611c0e565b50606082015181600301908161091a9190611c0e565b506080820151816004015560a082015181600501555050505050505050565b6000600560008373ffffffffffffffffffffffffffffffffffffffff1673ffffffffffffffffffffffffffffffffffffffff168152602001908152602001600020549050919050565b6000805b600660003373ffffffffffffffffffffffffffffffffffffffff1673ffffffffffffffffffffffffffffffffffffffff16815260200190815260200160002080549050811015610b1a57600660003373ffffffffffffffffffffffffffffffffffffffff1673ffffffffffffffffffffffffffffffffffffffff1681526020019081526020016000208181548110610a2157610a206117db565b5b9060005260206000209060060201600001548303610b0757600660003373ffffffffffffffffffffffffffffffffffffffff1673ffffffffffffffffffffffffffffffffffffffff1681526020019081526020016000208181548110610a8a57610a896117db565b5b90600052602060002090600602016004015491506001600660003373ffffffffffffffffffffffffffffffffffffffff1673ffffffffffffffffffffffffffffffffffffffff1681526020019081526020016000208281548110610af157610af06117db565b5b9060005260206000209060060201600501819055505b8080610b129061186d565b915050610986565b5060008054906101000a900473ffffffffffffffffffffffffffffffffffffffff1673ffffffffffffffffffffffffffffffffffffffff1663ecd831e833836040518363ffffffff1660e01b8152600401610b76929190611cef565b600060405180830381600087803b158015610b9057600080fd5b505af1158015610ba4573d6000803e3d6000fd5b50505050610bb0610eb2565b5050565b60028054610bc19061195a565b80601f0160208091040260200160405190810160405280929190818152602001828054610bed9061195a565b8015610c3a5780601f10610c0f57610100808354040283529160200191610c3a565b820191906000526020600020905b815481529060010190602001808311610c1d57829003601f168201915b505050505081565b6060600660003373ffffffffffffffffffffffffffffffffffffffff1673ffffffffffffffffffffffffffffffffffffffff168152602001908152602001600020805480602002602001604051908101604052809291908181526020016000905b82821015610ea957838290600052602060002090600602016040518060c001604052908160008201548152602001600182018054610ce09061195a565b80601f0160208091040260200160405190810160405280929190818152602001828054610d0c9061195a565b8015610d595780601f10610d2e57610100808354040283529160200191610d59565b820191906000526020600020905b815481529060010190602001808311610d3c57829003601f168201915b50505050508152602001600282018054610d729061195a565b80601f0160208091040260200160405190810160405280929190818152602001828054610d9e9061195a565b8015610deb5780601f10610dc057610100808354040283529160200191610deb565b820191906000526020600020905b815481529060010190602001808311610dce57829003601f168201915b50505050508152602001600382018054610e049061195a565b80601f0160208091040260200160405190810160405280929190818152602001828054610e309061195a565b8015610e7d5780601f10610e5257610100808354040283529160200191610e7d565b820191906000526020600020905b815481529060010190602001808311610e6057829003601f168201915b505050505081526020016004820154815260200160058201548152505081526020019060010190610ca3565b50505050905090565b600560003373ffffffffffffffffffffffffffffffffffffffff1673ffffffffffffffffffffffffffffffffffffffff1681526020019081526020016000206000815480929190610f029061186d565b9190505550565b600042905060005b600660003373ffffffffffffffffffffffffffffffffffffffff1673ffffffffffffffffffffffffffffffffffffffff168152602001908152602001600020805490508110156110fb576000600660003373ffffffffffffffffffffffffffffffffffffffff1673ffffffffffffffffffffffffffffffffffffffff1681526020019081526020016000208281548110610fae57610fad6117db565b5b90600052602060002090600602016002018054610fca9061195a565b80601f0160208091040260200160405190810160405280929190818152602001828054610ff69061195a565b80156110435780601f1061101857610100808354040283529160200191611043565b820191906000526020600020905b81548152906001019060200180831161102657829003601f168201915b50505050509050600061105582610216565b90508381116110e6577fffffffffffffffffffffffffffffffffffffffffffffffffffffffffffffffff600660003373ffffffffffffffffffffffffffffffffffffffff1673ffffffffffffffffffffffffffffffffffffffff16815260200190815260200160002084815481106110d0576110cf6117db565b5b9060005260206000209060060201600501819055505b505080806110f39061186d565b915050610f11565b5050565b6000808290506000809250600090505b815181101561119257600082828151811061112d5761112c6117db565b5b602001015160f81c60f81b60f81c60ff16905060308110158015611152575060398111155b1561117e5760308161116491906118b5565b600a8561117191906118e9565b61117b9190611839565b93505b50808061118a9061186d565b91505061110f565b5050919050565b6000604051905090565b600080fd5b600080fd5b600080fd5b600080fd5b6000601f19601f8301169050919050565b7f4e487b7100000000000000000000000000000000000000000000000000000000600052604160045260246000fd5b611200826111b7565b810181811067ffffffffffffffff8211171561121f5761121e6111c8565b5b80604052505050565b6000611232611199565b905061123e82826111f7565b919050565b600067ffffffffffffffff82111561125e5761125d6111c8565b5b611267826111b7565b9050602081019050919050565b82818337600083830152505050565b600061129661129184611243565b611228565b9050828152602081018484840111156112b2576112b16111b2565b5b6112bd848285611274565b509392505050565b600082601f8301126112da576112d96111ad565b5b81356112ea848260208601611283565b91505092915050565b600060208284031215611309576113086111a3565b5b600082013567ffffffffffffffff811115611327576113266111a8565b5b611333848285016112c5565b91505092915050565b6000819050919050565b61134f8161133c565b82525050565b600060208201905061136a6000830184611346565b92915050565b600081519050919050565b600082825260208201905092915050565b60005b838110156113aa57808201518184015260208101905061138f565b60008484015250505050565b60006113c182611370565b6113cb818561137b565b93506113db81856020860161138c565b6113e4816111b7565b840191505092915050565b6000602082019050818103600083015261140981846113b6565b905092915050565b600073ffffffffffffffffffffffffffffffffffffffff82169050919050565b600061143c82611411565b9050919050565b61144c81611431565b82525050565b60006020820190506114676000830184611443565b92915050565b6114768161133c565b811461148157600080fd5b50565b6000813590506114938161146d565b92915050565b6000602082840312156114af576114ae6111a3565b5b60006114bd84828501611484565b91505092915050565b600080600080600060a086880312156114e2576114e16111a3565b5b60006114f088828901611484565b955050602086013567ffffffffffffffff811115611511576115106111a8565b5b61151d888289016112c5565b945050604086013567ffffffffffffffff81111561153e5761153d6111a8565b5b61154a888289016112c5565b935050606086013567ffffffffffffffff81111561156b5761156a6111a8565b5b611577888289016112c5565b925050608061158888828901611484565b9150509295509295909350565b61159e81611431565b81146115a957600080fd5b50565b6000813590506115bb81611595565b92915050565b6000602082840312156115d7576115d66111a3565b5b60006115e5848285016115ac565b91505092915050565b600081519050919050565b600082825260208201905092915050565b6000819050602082019050919050565b6116238161133c565b82525050565b600082825260208201905092915050565b600061164582611370565b61164f8185611629565b935061165f81856020860161138c565b611668816111b7565b840191505092915050565b6000819050919050565b61168681611673565b82525050565b600060c0830160008301516116a4600086018261161a565b50602083015184820360208601526116bc828261163a565b915050604083015184820360408601526116d6828261163a565b915050606083015184820360608601526116f0828261163a565b9150506080830151611705608086018261161a565b5060a083015161171860a086018261167d565b508091505092915050565b600061172f838361168c565b905092915050565b6000602082019050919050565b600061174f826115ee565b61175981856115f9565b93508360208202850161176b8561160a565b8060005b858110156117a757848403895281516117888582611723565b945061179383611737565b925060208a0199505060018101905061176f565b50829750879550505050505092915050565b600060208201905081810360008301526117d38184611744565b905092915050565b7f4e487b7100000000000000000000000000000000000000000000000000000000600052603260045260246000fd5b7f4e487b7100000000000000000000000000000000000000000000000000000000600052601160045260246000fd5b60006118448261133c565b915061184f8361133c565b92508282019050808211156118675761186661180a565b5b92915050565b60006118788261133c565b91507fffffffffffffffffffffffffffffffffffffffffffffffffffffffffffffffff82036118aa576118a961180a565b5b600182019050919050565b60006118c08261133c565b91506118cb8361133c565b92508282039050818111156118e3576118e261180a565b5b92915050565b60006118f48261133c565b91506118ff8361133c565b925082820261190d8161133c565b915082820484148315176119245761192361180a565b5b5092915050565b7f4e487b7100000000000000000000000000000000000000000000000000000000600052602260045260246000fd5b6000600282049050600182168061197257607f821691505b6020821081036119855761198461192b565b5b50919050565b7f496e76616c69642062616c616e63650000000000000000000000000000000000600082015250565b60006119c1600f8361137b565b91506119cc8261198b565b602082019050919050565b600060208201905081810360008301526119f0816119b4565b9050919050565b6000611a0282611411565b9050919050565b611a12816119f7565b8114611a1d57600080fd5b50565b600081519050611a2f81611a09565b92915050565b600060208284031215611a4b57611a4a6111a3565b5b6000611a5984828501611a20565b91505092915050565b60008190508160005260206000209050919050565b60006020601f8301049050919050565b600082821b905092915050565b600060088302611ac47fffffffffffffffffffffffffffffffffffffffffffffffffffffffffffffffff82611a87565b611ace8683611a87565b95508019841693508086168417925050509392505050565b6000819050919050565b6000611b0b611b06611b018461133c565b611ae6565b61133c565b9050919050565b6000819050919050565b611b2583611af0565b611b39611b3182611b12565b848454611a94565b825550505050565b600090565b611b4e611b41565b611b59818484611b1c565b505050565b5b81811015611b7d57611b72600082611b46565b600181019050611b5f565b5050565b601f821115611bc257611b9381611a62565b611b9c84611a77565b81016020851015611bab578190505b611bbf611bb785611a77565b830182611b5e565b50505b505050565b600082821c905092915050565b6000611be560001984600802611bc7565b1980831691505092915050565b6000611bfe8383611bd4565b9150826002028217905092915050565b611c1782611370565b67ffffffffffffffff811115611c3057611c2f6111c8565b5b611c3a825461195a565b611c45828285611b81565b600060209050601f831160018114611c785760008415611c66578287015190505b611c708582611bf2565b865550611cd8565b601f198416611c8686611a62565b60005b82811015611cae57848901518255600182019150602085019450602081019050611c89565b86831015611ccb5784890151611cc7601f891682611bd4565b8355505b6001600288020188555050505b505050505050565b611ce9816119f7565b82525050565b6000604082019050611d046000830185611ce0565b611d116020830184611346565b939250505056fea26469706673582212208e185d02004fd91248dff04ab67ae953cb89c613acd54c9256ea58b832d67b3364736f6c63430008130033",
  "linkReferences": {},
  "deployedLinkReferences": {}
}